{
  "_format": "hh-sol-artifact-1",
  "contractName": "MaonoVault",
  "sourceName": "contracts/MaonoVault.sol",
  "abi": [
    {
      "inputs": [
        {
          "internalType": "address",
          "name": "_asset",
          "type": "address"
        },
        {
          "internalType": "address",
          "name": "_daoTreasury",
          "type": "address"
        },
        {
          "internalType": "address",
          "name": "_manager",
          "type": "address"
        }
      ],
      "stateMutability": "nonpayable",
      "type": "constructor"
    },
    {
      "inputs": [],
      "name": "BelowMinDeposit",
      "type": "error"
    },
    {
      "inputs": [],
      "name": "CapBelowTVL",
      "type": "error"
    },
    {
      "inputs": [
        {
          "internalType": "address",
          "name": "spender",
          "type": "address"
        },
        {
          "internalType": "uint256",
          "name": "allowance",
          "type": "uint256"
        },
        {
          "internalType": "uint256",
          "name": "needed",
          "type": "uint256"
        }
      ],
      "name": "ERC20InsufficientAllowance",
      "type": "error"
    },
    {
      "inputs": [
        {
          "internalType": "address",
          "name": "sender",
          "type": "address"
        },
        {
          "internalType": "uint256",
          "name": "balance",
          "type": "uint256"
        },
        {
          "internalType": "uint256",
          "name": "needed",
          "type": "uint256"
        }
      ],
      "name": "ERC20InsufficientBalance",
      "type": "error"
    },
    {
      "inputs": [
        {
          "internalType": "address",
          "name": "approver",
          "type": "address"
        }
      ],
      "name": "ERC20InvalidApprover",
      "type": "error"
    },
    {
      "inputs": [
        {
          "internalType": "address",
          "name": "receiver",
          "type": "address"
        }
      ],
      "name": "ERC20InvalidReceiver",
      "type": "error"
    },
    {
      "inputs": [
        {
          "internalType": "address",
          "name": "sender",
          "type": "address"
        }
      ],
      "name": "ERC20InvalidSender",
      "type": "error"
    },
    {
      "inputs": [
        {
          "internalType": "address",
          "name": "spender",
          "type": "address"
        }
      ],
      "name": "ERC20InvalidSpender",
      "type": "error"
    },
    {
      "inputs": [
        {
          "internalType": "address",
          "name": "receiver",
          "type": "address"
        },
        {
          "internalType": "uint256",
          "name": "assets",
          "type": "uint256"
        },
        {
          "internalType": "uint256",
          "name": "max",
          "type": "uint256"
        }
      ],
      "name": "ERC4626ExceededMaxDeposit",
      "type": "error"
    },
    {
      "inputs": [
        {
          "internalType": "address",
          "name": "receiver",
          "type": "address"
        },
        {
          "internalType": "uint256",
          "name": "shares",
          "type": "uint256"
        },
        {
          "internalType": "uint256",
          "name": "max",
          "type": "uint256"
        }
      ],
      "name": "ERC4626ExceededMaxMint",
      "type": "error"
    },
    {
      "inputs": [
        {
          "internalType": "address",
          "name": "owner",
          "type": "address"
        },
        {
          "internalType": "uint256",
          "name": "shares",
          "type": "uint256"
        },
        {
          "internalType": "uint256",
          "name": "max",
          "type": "uint256"
        }
      ],
      "name": "ERC4626ExceededMaxRedeem",
      "type": "error"
    },
    {
      "inputs": [
        {
          "internalType": "address",
          "name": "owner",
          "type": "address"
        },
        {
          "internalType": "uint256",
          "name": "assets",
          "type": "uint256"
        },
        {
          "internalType": "uint256",
          "name": "max",
          "type": "uint256"
        }
      ],
      "name": "ERC4626ExceededMaxWithdraw",
      "type": "error"
    },
    {
      "inputs": [],
      "name": "InsufficientBalance",
      "type": "error"
    },
    {
      "inputs": [],
      "name": "InvalidFee",
      "type": "error"
    },
    {
      "inputs": [],
      "name": "InvalidNAV",
      "type": "error"
    },
    {
      "inputs": [],
      "name": "NoProfit",
      "type": "error"
    },
    {
      "inputs": [],
      "name": "NotManager",
      "type": "error"
    },
    {
      "inputs": [
        {
          "internalType": "address",
          "name": "owner",
          "type": "address"
        }
      ],
      "name": "OwnableInvalidOwner",
      "type": "error"
    },
    {
      "inputs": [
        {
          "internalType": "address",
          "name": "account",
          "type": "address"
        }
      ],
      "name": "OwnableUnauthorizedAccount",
      "type": "error"
    },
    {
      "inputs": [
        {
          "internalType": "address",
          "name": "token",
          "type": "address"
        }
      ],
      "name": "SafeERC20FailedOperation",
      "type": "error"
    },
    {
      "inputs": [],
      "name": "VaultCapExceeded",
      "type": "error"
    },
    {
      "inputs": [],
      "name": "WithdrawalAlreadyFulfilled",
      "type": "error"
    },
    {
      "inputs": [],
      "name": "WithdrawalNotReady",
      "type": "error"
    },
    {
      "inputs": [],
      "name": "ZeroAddress",
      "type": "error"
    },
    {
      "anonymous": false,
      "inputs": [
        {
          "indexed": true,
          "internalType": "address",
          "name": "owner",
          "type": "address"
        },
        {
          "indexed": true,
          "internalType": "address",
          "name": "spender",
          "type": "address"
        },
        {
          "indexed": false,
          "internalType": "uint256",
          "name": "value",
          "type": "uint256"
        }
      ],
      "name": "Approval",
      "type": "event"
    },
    {
      "anonymous": false,
      "inputs": [
        {
          "indexed": true,
          "internalType": "address",
          "name": "sender",
          "type": "address"
        },
        {
          "indexed": true,
          "internalType": "address",
          "name": "owner",
          "type": "address"
        },
        {
          "indexed": false,
          "internalType": "uint256",
          "name": "assets",
          "type": "uint256"
        },
        {
          "indexed": false,
          "internalType": "uint256",
          "name": "shares",
          "type": "uint256"
        }
      ],
      "name": "Deposit",
      "type": "event"
    },
    {
      "anonymous": false,
      "inputs": [
        {
          "indexed": false,
          "internalType": "uint256",
          "name": "oldFee",
          "type": "uint256"
        },
        {
          "indexed": false,
          "internalType": "uint256",
          "name": "newFee",
          "type": "uint256"
        }
      ],
      "name": "ManagementFeeChanged",
      "type": "event"
    },
    {
      "anonymous": false,
      "inputs": [
        {
          "indexed": false,
          "internalType": "uint256",
          "name": "amount",
          "type": "uint256"
        },
        {
          "indexed": false,
          "internalType": "uint256",
          "name": "timestamp",
          "type": "uint256"
        }
      ],
      "name": "ManagementFeeCollected",
      "type": "event"
    },
    {
      "anonymous": false,
      "inputs": [
        {
          "indexed": false,
          "internalType": "address",
          "name": "oldManager",
          "type": "address"
        },
        {
          "indexed": false,
          "internalType": "address",
          "name": "newManager",
          "type": "address"
        }
      ],
      "name": "ManagerChanged",
      "type": "event"
    },
    {
      "anonymous": false,
      "inputs": [
        {
          "indexed": false,
          "internalType": "uint256",
          "name": "newNAV",
          "type": "uint256"
        },
        {
          "indexed": false,
          "internalType": "uint256",
          "name": "timestamp",
          "type": "uint256"
        },
        {
          "indexed": false,
          "internalType": "address",
          "name": "updatedBy",
          "type": "address"
        }
      ],
      "name": "NAVUpdated",
      "type": "event"
    },
    {
      "anonymous": false,
      "inputs": [
        {
          "indexed": true,
          "internalType": "address",
          "name": "previousOwner",
          "type": "address"
        },
        {
          "indexed": true,
          "internalType": "address",
          "name": "newOwner",
          "type": "address"
        }
      ],
      "name": "OwnershipTransferred",
      "type": "event"
    },
    {
      "anonymous": false,
      "inputs": [
        {
          "indexed": false,
          "internalType": "address",
          "name": "account",
          "type": "address"
        }
      ],
      "name": "Paused",
      "type": "event"
    },
    {
      "anonymous": false,
      "inputs": [
        {
          "indexed": false,
          "internalType": "uint256",
          "name": "oldFee",
          "type": "uint256"
        },
        {
          "indexed": false,
          "internalType": "uint256",
          "name": "newFee",
          "type": "uint256"
        }
      ],
      "name": "PerformanceFeeChanged",
      "type": "event"
    },
    {
      "anonymous": false,
      "inputs": [
        {
          "indexed": false,
          "internalType": "uint256",
          "name": "amount",
          "type": "uint256"
        },
        {
          "indexed": false,
          "internalType": "uint256",
          "name": "timestamp",
          "type": "uint256"
        }
      ],
      "name": "PerformanceFeeCollected",
      "type": "event"
    },
    {
      "anonymous": false,
      "inputs": [
        {
          "indexed": true,
          "internalType": "string",
          "name": "daoId",
          "type": "string"
        },
        {
          "indexed": false,
          "internalType": "uint256",
          "name": "feeAmount",
          "type": "uint256"
        },
        {
          "indexed": false,
          "internalType": "uint256",
          "name": "timestamp",
          "type": "uint256"
        }
      ],
      "name": "PlatformFeeRecorded",
      "type": "event"
    },
    {
      "anonymous": false,
      "inputs": [
        {
          "indexed": true,
          "internalType": "address",
          "name": "from",
          "type": "address"
        },
        {
          "indexed": true,
          "internalType": "address",
          "name": "to",
          "type": "address"
        },
        {
          "indexed": false,
          "internalType": "uint256",
          "name": "value",
          "type": "uint256"
        }
      ],
      "name": "Transfer",
      "type": "event"
    },
    {
      "anonymous": false,
      "inputs": [
        {
          "indexed": false,
          "internalType": "address",
          "name": "account",
          "type": "address"
        }
      ],
      "name": "Unpaused",
      "type": "event"
    },
    {
      "anonymous": false,
      "inputs": [
        {
          "indexed": false,
          "internalType": "uint256",
          "name": "oldCap",
          "type": "uint256"
        },
        {
          "indexed": false,
          "internalType": "uint256",
          "name": "newCap",
          "type": "uint256"
        }
      ],
      "name": "VaultCapChanged",
      "type": "event"
    },
    {
      "anonymous": false,
      "inputs": [
        {
          "indexed": true,
          "internalType": "address",
          "name": "sender",
          "type": "address"
        },
        {
          "indexed": true,
          "internalType": "address",
          "name": "receiver",
          "type": "address"
        },
        {
          "indexed": true,
          "internalType": "address",
          "name": "owner",
          "type": "address"
        },
        {
          "indexed": false,
          "internalType": "uint256",
          "name": "assets",
          "type": "uint256"
        },
        {
          "indexed": false,
          "internalType": "uint256",
          "name": "shares",
          "type": "uint256"
        }
      ],
      "name": "Withdraw",
      "type": "event"
    },
    {
      "anonymous": false,
      "inputs": [
        {
          "indexed": false,
          "internalType": "uint256",
          "name": "requestId",
          "type": "uint256"
        },
        {
          "indexed": false,
          "internalType": "address",
          "name": "user",
          "type": "address"
        },
        {
          "indexed": false,
          "internalType": "uint256",
          "name": "shares",
          "type": "uint256"
        },
        {
          "indexed": false,
          "internalType": "uint256",
          "name": "assets",
          "type": "uint256"
        }
      ],
      "name": "WithdrawalFulfilled",
      "type": "event"
    },
    {
      "anonymous": false,
      "inputs": [
        {
          "indexed": false,
          "internalType": "uint256",
          "name": "requestId",
          "type": "uint256"
        },
        {
          "indexed": false,
          "internalType": "address",
          "name": "user",
          "type": "address"
        },
        {
          "indexed": false,
          "internalType": "uint256",
          "name": "shares",
          "type": "uint256"
        }
      ],
      "name": "WithdrawalRequested",
      "type": "event"
    },
    {
      "inputs": [],
      "name": "FEE_DENOMINATOR",
      "outputs": [
        {
          "internalType": "uint256",
          "name": "",
          "type": "uint256"
        }
      ],
      "stateMutability": "view",
      "type": "function"
    },
    {
      "inputs": [],
      "name": "SECONDS_PER_YEAR",
      "outputs": [
        {
          "internalType": "uint256",
          "name": "",
          "type": "uint256"
        }
      ],
      "stateMutability": "view",
      "type": "function"
    },
    {
      "inputs": [
        {
          "internalType": "address",
          "name": "owner",
          "type": "address"
        },
        {
          "internalType": "address",
          "name": "spender",
          "type": "address"
        }
      ],
      "name": "allowance",
      "outputs": [
        {
          "internalType": "uint256",
          "name": "",
          "type": "uint256"
        }
      ],
      "stateMutability": "view",
      "type": "function"
    },
    {
      "inputs": [
        {
          "internalType": "address",
          "name": "spender",
          "type": "address"
        },
        {
          "internalType": "uint256",
          "name": "value",
          "type": "uint256"
        }
      ],
      "name": "approve",
      "outputs": [
        {
          "internalType": "bool",
          "name": "",
          "type": "bool"
        }
      ],
      "stateMutability": "nonpayable",
      "type": "function"
    },
    {
      "inputs": [],
      "name": "asset",
      "outputs": [
        {
          "internalType": "address",
          "name": "",
          "type": "address"
        }
      ],
      "stateMutability": "view",
      "type": "function"
    },
    {
      "inputs": [
        {
          "internalType": "address",
          "name": "account",
          "type": "address"
        }
      ],
      "name": "balanceOf",
      "outputs": [
        {
          "internalType": "uint256",
          "name": "",
          "type": "uint256"
        }
      ],
      "stateMutability": "view",
      "type": "function"
    },
    {
      "inputs": [],
      "name": "collectManagementFees",
      "outputs": [],
      "stateMutability": "nonpayable",
      "type": "function"
    },
    {
      "inputs": [
        {
          "internalType": "uint256",
          "name": "shares",
          "type": "uint256"
        }
      ],
      "name": "convertToAssets",
      "outputs": [
        {
          "internalType": "uint256",
          "name": "",
          "type": "uint256"
        }
      ],
      "stateMutability": "view",
      "type": "function"
    },
    {
      "inputs": [
        {
          "internalType": "uint256",
          "name": "assets",
          "type": "uint256"
        }
      ],
      "name": "convertToShares",
      "outputs": [
        {
          "internalType": "uint256",
          "name": "",
          "type": "uint256"
        }
      ],
      "stateMutability": "view",
      "type": "function"
    },
    {
      "inputs": [],
      "name": "daoTreasury",
      "outputs": [
        {
          "internalType": "address",
          "name": "",
          "type": "address"
        }
      ],
      "stateMutability": "view",
      "type": "function"
    },
    {
      "inputs": [],
      "name": "decimals",
      "outputs": [
        {
          "internalType": "uint8",
          "name": "",
          "type": "uint8"
        }
      ],
      "stateMutability": "view",
      "type": "function"
    },
    {
      "inputs": [
        {
          "internalType": "uint256",
          "name": "assets",
          "type": "uint256"
        },
        {
          "internalType": "address",
          "name": "receiver",
          "type": "address"
        }
      ],
      "name": "deposit",
      "outputs": [
        {
          "internalType": "uint256",
          "name": "shares",
          "type": "uint256"
        }
      ],
      "stateMutability": "nonpayable",
      "type": "function"
    },
    {
      "inputs": [
        {
          "internalType": "uint256",
          "name": "amount",
          "type": "uint256"
        }
      ],
      "name": "emergencyWithdraw",
      "outputs": [],
      "stateMutability": "nonpayable",
      "type": "function"
    },
    {
      "inputs": [
        {
          "internalType": "uint256",
          "name": "requestId",
          "type": "uint256"
        }
      ],
      "name": "fulfillWithdrawal",
      "outputs": [],
      "stateMutability": "nonpayable",
      "type": "function"
    },
    {
      "inputs": [],
      "name": "getFeeInfo",
      "outputs": [
        {
          "internalType": "uint256",
          "name": "perfFee",
          "type": "uint256"
        },
        {
          "internalType": "uint256",
          "name": "mgmtFee",
          "type": "uint256"
        },
        {
          "internalType": "uint256",
          "name": "totalPerfFeesCollected",
          "type": "uint256"
        },
        {
          "internalType": "uint256",
          "name": "totalMgmtFeesCollected",
          "type": "uint256"
        }
      ],
      "stateMutability": "view",
      "type": "function"
    },
    {
      "inputs": [
        {
          "internalType": "uint256",
          "name": "requestId",
          "type": "uint256"
        }
      ],
      "name": "getWithdrawalRequest",
      "outputs": [
        {
          "components": [
            {
              "internalType": "address",
              "name": "user",
              "type": "address"
            },
            {
              "internalType": "uint256",
              "name": "shares",
              "type": "uint256"
            },
            {
              "internalType": "uint256",
              "name": "requestTime",
              "type": "uint256"
            },
            {
              "internalType": "bool",
              "name": "fulfilled",
              "type": "bool"
            }
          ],
          "internalType": "struct MaonoVault.WithdrawalRequest",
          "name": "",
          "type": "tuple"
        }
      ],
      "stateMutability": "view",
      "type": "function"
    },
    {
      "inputs": [],
      "name": "largeWithdrawalThreshold",
      "outputs": [
        {
          "internalType": "uint256",
          "name": "",
          "type": "uint256"
        }
      ],
      "stateMutability": "view",
      "type": "function"
    },
    {
      "inputs": [],
      "name": "lastManagementFeeCollection",
      "outputs": [
        {
          "internalType": "uint256",
          "name": "",
          "type": "uint256"
        }
      ],
      "stateMutability": "view",
      "type": "function"
    },
    {
      "inputs": [],
      "name": "lastNAV",
      "outputs": [
        {
          "internalType": "uint256",
          "name": "",
          "type": "uint256"
        }
      ],
      "stateMutability": "view",
      "type": "function"
    },
    {
      "inputs": [],
      "name": "lastNAVUpdate",
      "outputs": [
        {
          "internalType": "uint256",
          "name": "",
          "type": "uint256"
        }
      ],
      "stateMutability": "view",
      "type": "function"
    },
    {
      "inputs": [],
      "name": "managementFee",
      "outputs": [
        {
          "internalType": "uint256",
          "name": "",
          "type": "uint256"
        }
      ],
      "stateMutability": "view",
      "type": "function"
    },
    {
      "inputs": [],
      "name": "manager",
      "outputs": [
        {
          "internalType": "address",
          "name": "",
          "type": "address"
        }
      ],
      "stateMutability": "view",
      "type": "function"
    },
    {
      "inputs": [
        {
          "internalType": "address",
          "name": "",
          "type": "address"
        }
      ],
      "name": "maxDeposit",
      "outputs": [
        {
          "internalType": "uint256",
          "name": "",
          "type": "uint256"
        }
      ],
      "stateMutability": "view",
      "type": "function"
    },
    {
      "inputs": [
        {
          "internalType": "address",
          "name": "",
          "type": "address"
        }
      ],
      "name": "maxMint",
      "outputs": [
        {
          "internalType": "uint256",
          "name": "",
          "type": "uint256"
        }
      ],
      "stateMutability": "view",
      "type": "function"
    },
    {
      "inputs": [
        {
          "internalType": "address",
          "name": "owner",
          "type": "address"
        }
      ],
      "name": "maxRedeem",
      "outputs": [
        {
          "internalType": "uint256",
          "name": "",
          "type": "uint256"
        }
      ],
      "stateMutability": "view",
      "type": "function"
    },
    {
      "inputs": [
        {
          "internalType": "address",
          "name": "owner",
          "type": "address"
        }
      ],
      "name": "maxWithdraw",
      "outputs": [
        {
          "internalType": "uint256",
          "name": "",
          "type": "uint256"
        }
      ],
      "stateMutability": "view",
      "type": "function"
    },
    {
      "inputs": [],
      "name": "minDeposit",
      "outputs": [
        {
          "internalType": "uint256",
          "name": "",
          "type": "uint256"
        }
      ],
      "stateMutability": "view",
      "type": "function"
    },
    {
      "inputs": [
        {
          "internalType": "uint256",
          "name": "shares",
          "type": "uint256"
        },
        {
          "internalType": "address",
          "name": "receiver",
          "type": "address"
        }
      ],
      "name": "mint",
      "outputs": [
        {
          "internalType": "uint256",
          "name": "",
          "type": "uint256"
        }
      ],
      "stateMutability": "nonpayable",
      "type": "function"
    },
    {
      "inputs": [],
      "name": "name",
      "outputs": [
        {
          "internalType": "string",
          "name": "",
          "type": "string"
        }
      ],
      "stateMutability": "view",
      "type": "function"
    },
    {
      "inputs": [],
      "name": "owner",
      "outputs": [
        {
          "internalType": "address",
          "name": "",
          "type": "address"
        }
      ],
      "stateMutability": "view",
      "type": "function"
    },
    {
      "inputs": [],
      "name": "pause",
      "outputs": [],
      "stateMutability": "nonpayable",
      "type": "function"
    },
    {
      "inputs": [],
      "name": "performanceFee",
      "outputs": [
        {
          "internalType": "uint256",
          "name": "",
          "type": "uint256"
        }
      ],
      "stateMutability": "view",
      "type": "function"
    },
    {
      "inputs": [
        {
          "internalType": "uint256",
          "name": "assets",
          "type": "uint256"
        }
      ],
      "name": "previewDeposit",
      "outputs": [
        {
          "internalType": "uint256",
          "name": "",
          "type": "uint256"
        }
      ],
      "stateMutability": "view",
      "type": "function"
    },
    {
      "inputs": [
        {
          "internalType": "uint256",
          "name": "shares",
          "type": "uint256"
        }
      ],
      "name": "previewMint",
      "outputs": [
        {
          "internalType": "uint256",
          "name": "",
          "type": "uint256"
        }
      ],
      "stateMutability": "view",
      "type": "function"
    },
    {
      "inputs": [],
      "name": "previewNAV",
      "outputs": [
        {
          "internalType": "uint256",
          "name": "nav",
          "type": "uint256"
        },
        {
          "internalType": "uint256",
          "name": "lastUpdate",
          "type": "uint256"
        }
      ],
      "stateMutability": "view",
      "type": "function"
    },
    {
      "inputs": [
        {
          "internalType": "uint256",
          "name": "shares",
          "type": "uint256"
        }
      ],
      "name": "previewRedeem",
      "outputs": [
        {
          "internalType": "uint256",
          "name": "",
          "type": "uint256"
        }
      ],
      "stateMutability": "view",
      "type": "function"
    },
    {
      "inputs": [
        {
          "internalType": "uint256",
          "name": "assets",
          "type": "uint256"
        }
      ],
      "name": "previewWithdraw",
      "outputs": [
        {
          "internalType": "uint256",
          "name": "",
          "type": "uint256"
        }
      ],
      "stateMutability": "view",
      "type": "function"
    },
    {
      "inputs": [
        {
          "internalType": "string",
          "name": "daoId",
          "type": "string"
        },
        {
          "internalType": "uint256",
          "name": "feeAmount",
          "type": "uint256"
        }
      ],
      "name": "recordPlatformFee",
      "outputs": [],
      "stateMutability": "nonpayable",
      "type": "function"
    },
    {
      "inputs": [
        {
          "internalType": "uint256",
          "name": "shares",
          "type": "uint256"
        },
        {
          "internalType": "address",
          "name": "receiver",
          "type": "address"
        },
        {
          "internalType": "address",
          "name": "owner",
          "type": "address"
        }
      ],
      "name": "redeem",
      "outputs": [
        {
          "internalType": "uint256",
          "name": "assets",
          "type": "uint256"
        }
      ],
      "stateMutability": "nonpayable",
      "type": "function"
    },
    {
      "inputs": [],
      "name": "renounceOwnership",
      "outputs": [],
      "stateMutability": "nonpayable",
      "type": "function"
    },
    {
      "inputs": [
        {
          "internalType": "uint256",
          "name": "newThreshold",
          "type": "uint256"
        }
      ],
      "name": "setLargeWithdrawalThreshold",
      "outputs": [],
      "stateMutability": "nonpayable",
      "type": "function"
    },
    {
      "inputs": [
        {
          "internalType": "uint256",
          "name": "newFee",
          "type": "uint256"
        }
      ],
      "name": "setManagementFee",
      "outputs": [],
      "stateMutability": "nonpayable",
      "type": "function"
    },
    {
      "inputs": [
        {
          "internalType": "address",
          "name": "newManager",
          "type": "address"
        }
      ],
      "name": "setManager",
      "outputs": [],
      "stateMutability": "nonpayable",
      "type": "function"
    },
    {
      "inputs": [
        {
          "internalType": "uint256",
          "name": "newMinDeposit",
          "type": "uint256"
        }
      ],
      "name": "setMinDeposit",
      "outputs": [],
      "stateMutability": "nonpayable",
      "type": "function"
    },
    {
      "inputs": [
        {
          "internalType": "uint256",
          "name": "newFee",
          "type": "uint256"
        }
      ],
      "name": "setPerformanceFee",
      "outputs": [],
      "stateMutability": "nonpayable",
      "type": "function"
    },
    {
      "inputs": [
        {
          "internalType": "uint256",
          "name": "newCap",
          "type": "uint256"
        }
      ],
      "name": "setVaultCap",
      "outputs": [],
      "stateMutability": "nonpayable",
      "type": "function"
    },
    {
      "inputs": [
        {
          "internalType": "uint256",
          "name": "newDelay",
          "type": "uint256"
        }
      ],
      "name": "setWithdrawalDelay",
      "outputs": [],
      "stateMutability": "nonpayable",
      "type": "function"
    },
    {
      "inputs": [],
      "name": "symbol",
      "outputs": [
        {
          "internalType": "string",
          "name": "",
          "type": "string"
        }
      ],
      "stateMutability": "view",
      "type": "function"
    },
    {
      "inputs": [],
      "name": "totalAssets",
      "outputs": [
        {
          "internalType": "uint256",
          "name": "",
          "type": "uint256"
        }
      ],
      "stateMutability": "view",
      "type": "function"
    },
    {
      "inputs": [],
      "name": "totalManagementFeesCollected",
      "outputs": [
        {
          "internalType": "uint256",
          "name": "",
          "type": "uint256"
        }
      ],
      "stateMutability": "view",
      "type": "function"
    },
    {
      "inputs": [],
      "name": "totalPerformanceFeesCollected",
      "outputs": [
        {
          "internalType": "uint256",
          "name": "",
          "type": "uint256"
        }
      ],
      "stateMutability": "view",
      "type": "function"
    },
    {
      "inputs": [],
      "name": "totalSupply",
      "outputs": [
        {
          "internalType": "uint256",
          "name": "",
          "type": "uint256"
        }
      ],
      "stateMutability": "view",
      "type": "function"
    },
    {
      "inputs": [
        {
          "internalType": "address",
          "name": "to",
          "type": "address"
        },
        {
          "internalType": "uint256",
          "name": "value",
          "type": "uint256"
        }
      ],
      "name": "transfer",
      "outputs": [
        {
          "internalType": "bool",
          "name": "",
          "type": "bool"
        }
      ],
      "stateMutability": "nonpayable",
      "type": "function"
    },
    {
      "inputs": [
        {
          "internalType": "address",
          "name": "from",
          "type": "address"
        },
        {
          "internalType": "address",
          "name": "to",
          "type": "address"
        },
        {
          "internalType": "uint256",
          "name": "value",
          "type": "uint256"
        }
      ],
      "name": "transferFrom",
      "outputs": [
        {
          "internalType": "bool",
          "name": "",
          "type": "bool"
        }
      ],
      "stateMutability": "nonpayable",
      "type": "function"
    },
    {
      "inputs": [
        {
          "internalType": "address",
          "name": "newOwner",
          "type": "address"
        }
      ],
      "name": "transferOwnership",
      "outputs": [],
      "stateMutability": "nonpayable",
      "type": "function"
    },
    {
      "inputs": [],
      "name": "unpause",
      "outputs": [],
      "stateMutability": "nonpayable",
      "type": "function"
    },
    {
      "inputs": [
        {
          "internalType": "uint256",
          "name": "newNAV",
          "type": "uint256"
        }
      ],
      "name": "updateNAV",
      "outputs": [],
      "stateMutability": "nonpayable",
      "type": "function"
    },
    {
      "inputs": [],
      "name": "vaultCap",
      "outputs": [
        {
          "internalType": "uint256",
          "name": "",
          "type": "uint256"
        }
      ],
      "stateMutability": "view",
      "type": "function"
    },
    {
      "inputs": [
        {
          "internalType": "uint256",
          "name": "assets",
          "type": "uint256"
        },
        {
          "internalType": "address",
          "name": "receiver",
          "type": "address"
        },
        {
          "internalType": "address",
          "name": "owner",
          "type": "address"
        }
      ],
      "name": "withdraw",
      "outputs": [
        {
          "internalType": "uint256",
          "name": "shares",
          "type": "uint256"
        }
      ],
      "stateMutability": "nonpayable",
      "type": "function"
    },
    {
      "inputs": [],
      "name": "withdrawalDelay",
      "outputs": [
        {
          "internalType": "uint256",
          "name": "",
          "type": "uint256"
        }
      ],
      "stateMutability": "view",
      "type": "function"
    },
    {
      "inputs": [],
      "name": "withdrawalRequestCounter",
      "outputs": [
        {
          "internalType": "uint256",
          "name": "",
          "type": "uint256"
        }
      ],
      "stateMutability": "view",
      "type": "function"
    },
    {
      "inputs": [
        {
          "internalType": "uint256",
          "name": "",
          "type": "uint256"
        }
      ],
      "name": "withdrawalRequests",
      "outputs": [
        {
          "internalType": "address",
          "name": "user",
          "type": "address"
        },
        {
          "internalType": "uint256",
          "name": "shares",
          "type": "uint256"
        },
        {
          "internalType": "uint256",
          "name": "requestTime",
          "type": "uint256"
        },
        {
          "internalType": "bool",
          "name": "fulfilled",
          "type": "bool"
        }
      ],
      "stateMutability": "view",
      "type": "function"
    }
  ],
  "bytecode": "0x60c0604052678ac7230489e8000060085569021e19e0c9bab24000006009556105dc600a5560c8600b5562015180601555683635c9adc5dea000006016553480156200004a57600080fd5b5060405162004f7d38038062004f7d83398181016040528101906200007091906200060e565b80836040518060400160405280601481526020017f4d616f6e6f205661756c74204c5020546f6b656e0000000000000000000000008152506040518060400160405280600481526020017f4d564c54000000000000000000000000000000000000000000000000000000008152508160039081620000ef9190620008e4565b508060049081620001019190620008e4565b5050506000806200011883620003c460201b60201c565b91509150816200012a5760126200012c565b805b60ff1660a08160ff16815250508273ffffffffffffffffffffffffffffffffffffffff1660808173ffffffffffffffffffffffffffffffffffffffff1681525050505050600073ffffffffffffffffffffffffffffffffffffffff168173ffffffffffffffffffffffffffffffffffffffff1603620001e55760006040517f1e4fbdf7000000000000000000000000000000000000000000000000000000008152600401620001dc9190620009dc565b60405180910390fd5b620001f681620004de60201b60201c565b5082600073ffffffffffffffffffffffffffffffffffffffff168173ffffffffffffffffffffffffffffffffffffffff16036200025f576040517fd92e233d00000000000000000000000000000000000000000000000000000000815260040160405180910390fd5b82600073ffffffffffffffffffffffffffffffffffffffff168173ffffffffffffffffffffffffffffffffffffffff1603620002c7576040517fd92e233d00000000000000000000000000000000000000000000000000000000815260040160405180910390fd5b82600073ffffffffffffffffffffffffffffffffffffffff168173ffffffffffffffffffffffffffffffffffffffff16036200032f576040517fd92e233d00000000000000000000000000000000000000000000000000000000815260040160405180910390fd5b84600d60006101000a81548173ffffffffffffffffffffffffffffffffffffffff021916908373ffffffffffffffffffffffffffffffffffffffff16021790555083600c60006101000a81548173ffffffffffffffffffffffffffffffffffffffff021916908373ffffffffffffffffffffffffffffffffffffffff1602179055504260108190555050505050505062000aee565b6000806000808473ffffffffffffffffffffffffffffffffffffffff1660405160240160405160208183030381529060405263313ce56760e01b6020820180517bffffffffffffffffffffffffffffffffffffffffffffffffffffffff83818316178352505050506040516200043b919062000a72565b600060405180830381855afa9150503d806000811462000478576040519150601f19603f3d011682016040523d82523d6000602084013e6200047d565b606091505b50915091508180156200049257506020815110155b15620004cf57600081806020019051810190620004b0919062000abc565b905060ff80168111620004cd5760018194509450505050620004d9565b505b6000809350935050505b915091565b6000600560009054906101000a900473ffffffffffffffffffffffffffffffffffffffff16905081600560006101000a81548173ffffffffffffffffffffffffffffffffffffffff021916908373ffffffffffffffffffffffffffffffffffffffff1602179055508173ffffffffffffffffffffffffffffffffffffffff168173ffffffffffffffffffffffffffffffffffffffff167f8be0079c531659141344cd1fd0a4f28419497f9722a3daafe3b4186f6b6457e060405160405180910390a35050565b600080fd5b600073ffffffffffffffffffffffffffffffffffffffff82169050919050565b6000620005d682620005a9565b9050919050565b620005e881620005c9565b8114620005f457600080fd5b50565b6000815190506200060881620005dd565b92915050565b6000806000606084860312156200062a5762000629620005a4565b5b60006200063a86828701620005f7565b93505060206200064d86828701620005f7565b92505060406200066086828701620005f7565b9150509250925092565b600081519050919050565b7f4e487b7100000000000000000000000000000000000000000000000000000000600052604160045260246000fd5b7f4e487b7100000000000000000000000000000000000000000000000000000000600052602260045260246000fd5b60006002820490506001821680620006ec57607f821691505b602082108103620007025762000701620006a4565b5b50919050565b60008190508160005260206000209050919050565b60006020601f8301049050919050565b600082821b905092915050565b6000600883026200076c7fffffffffffffffffffffffffffffffffffffffffffffffffffffffffffffffff826200072d565b6200077886836200072d565b95508019841693508086168417925050509392505050565b6000819050919050565b6000819050919050565b6000620007c5620007bf620007b98462000790565b6200079a565b62000790565b9050919050565b6000819050919050565b620007e183620007a4565b620007f9620007f082620007cc565b8484546200073a565b825550505050565b600090565b6200081062000801565b6200081d818484620007d6565b505050565b5b8181101562000845576200083960008262000806565b60018101905062000823565b5050565b601f82111562000894576200085e8162000708565b62000869846200071d565b8101602085101562000879578190505b6200089162000888856200071d565b83018262000822565b50505b505050565b600082821c905092915050565b6000620008b96000198460080262000899565b1980831691505092915050565b6000620008d48383620008a6565b9150826002028217905092915050565b620008ef826200066a565b67ffffffffffffffff8111156200090b576200090a62000675565b5b620009178254620006d3565b6200092482828562000849565b600060209050601f8311600181146200095c576000841562000947578287015190505b620009538582620008c6565b865550620009c3565b601f1984166200096c8662000708565b60005b8281101562000996578489015182556001820191506020850194506020810190506200096f565b86831015620009b65784890151620009b2601f891682620008a6565b8355505b6001600288020188555050505b505050505050565b620009d681620005c9565b82525050565b6000602082019050620009f36000830184620009cb565b92915050565b600081519050919050565b600081905092915050565b60005b8381101562000a2f57808201518184015260208101905062000a12565b60008484015250505050565b600062000a4882620009f9565b62000a54818562000a04565b935062000a6681856020860162000a0f565b80840191505092915050565b600062000a80828462000a3b565b915081905092915050565b62000a968162000790565b811462000aa257600080fd5b50565b60008151905062000ab68162000a8b565b92915050565b60006020828403121562000ad55762000ad4620005a4565b5b600062000ae58482850162000aa5565b91505092915050565b60805160a05161446962000b146000396000610f3301526000610f6501526144696000f3fe608060405234801561001057600080fd5b50600436106103b95760003560e01c80638687098b116101f4578063c6e6f5921161011a578063dd62ed3e116100ad578063f0f5907d1161007c578063f0f5907d14610ba9578063f2fde38b14610bc5578063f64d421f14610be1578063fe56e23214610bff576103b9565b8063dd62ed3e14610b0d578063e4a2bdaf14610b3d578063e6a69ab814610b5b578063ef8b30f714610b79576103b9565b8063d2c13da5116100e9578063d2c13da514610a85578063d73792a914610aa1578063d88150ea14610abf578063d905777e14610add576103b9565b8063c6e6f592146109ea578063ce96cb7714610a1a578063d0ebdbe714610a4a578063d1b1daac14610a66576103b9565b8063a6f7f5d611610192578063b3d7f6b911610161578063b3d7f6b91461092a578063b460af941461095a578063ba0876521461098a578063c63d75b6146109ba576103b9565b8063a6f7f5d61461088e578063a7ab6961146108ac578063a9059cbb146108ca578063ae485651146108fa576103b9565b80638fcc9cfb116101ce5780638fcc9cfb146107f1578063937b25811461080d57806394bf804d1461084057806395d89b4114610870576103b9565b80638687098b1461079757806387788782146107b55780638da5cb5b146107d3576103b9565b8063402d267d116102e457806370897b231161027757806379022a9f1161024657806379022a9f146107355780637afaab01146107535780638456cb591461076f5780638571177a14610779576103b9565b806370897b23146106d557806370a08231146106f1578063710f20a214610721578063715018a61461072b576103b9565b80634cdad506116102b35780634cdad5061461063d57806350ede0101461066d5780635312ea8e146106895780636e553f65146106a5576103b9565b8063402d267d146105b357806341b3d185146105e357806341bd294114610601578063481c6a751461061f576103b9565b8063113fa8501161035c57806338d52e0f1161032b57806338d52e0f1461054f5780633c1bda091461056d5780633f0af8ef1461058b5780633f4ba83a146105a9576103b9565b8063113fa850146104c757806318160ddd146104e357806323b872dd14610501578063313ce56714610531576103b9565b806307a2d13a1161039857806307a2d13a1461041b578063095ea7b31461044b5780630a28a4771461047b5780630cb1982b146104ab576103b9565b806202eab7146103be57806301e1d114146103df57806306fdde03146103fd575b600080fd5b6103c6610c1b565b6040516103d694939291906134f9565b60405180910390f35b6103e7610c3b565b6040516103f4919061353e565b60405180910390f35b610405610cc3565b60405161041291906135e9565b60405180910390f35b6104356004803603810190610430919061364b565b610d55565b604051610442919061353e565b60405180910390f35b610465600480360381019061046091906136d6565b610d69565b6040516104729190613731565b60405180910390f35b6104956004803603810190610490919061364b565b610d8c565b6040516104a2919061353e565b60405180910390f35b6104c560048036038101906104c0919061364b565b610da0565b005b6104e160048036038101906104dc919061364b565b610edc565b005b6104eb610eee565b6040516104f8919061353e565b60405180910390f35b61051b6004803603810190610516919061374c565b610ef8565b6040516105289190613731565b60405180910390f35b610539610f27565b60405161054691906137bb565b60405180910390f35b610557610f61565b60405161056491906137e5565b60405180910390f35b610575610f89565b604051610582919061353e565b60405180910390f35b610593610f8f565b6040516105a0919061353e565b60405180910390f35b6105b1610f95565b005b6105cd60048036038101906105c89190613800565b610ff1565b6040516105da919061353e565b60405180910390f35b6105eb61101b565b6040516105f8919061353e565b60405180910390f35b610609611021565b604051610616919061353e565b60405180910390f35b610627611027565b60405161063491906137e5565b60405180910390f35b6106576004803603810190610652919061364b565b61104d565b604051610664919061353e565b60405180910390f35b61068760048036038101906106829190613962565b611061565b005b6106a3600480360381019061069e919061364b565b611212565b005b6106bf60048036038101906106ba91906139be565b6112aa565b6040516106cc919061353e565b60405180910390f35b6106ef60048036038101906106ea919061364b565b6113f5565b005b61070b60048036038101906107069190613800565b611484565b604051610718919061353e565b60405180910390f35b6107296114cc565b005b61073361155d565b005b61073d611571565b60405161074a91906137e5565b60405180910390f35b61076d6004803603810190610768919061364b565b611597565b005b610777611894565b005b6107816118f0565b60405161078e919061353e565b60405180910390f35b61079f6118f6565b6040516107ac919061353e565b60405180910390f35b6107bd6118fc565b6040516107ca919061353e565b60405180910390f35b6107db611902565b6040516107e891906137e5565b60405180910390f35b61080b6004803603810190610806919061364b565b61192c565b005b6108276004803603810190610822919061364b565b61193e565b60405161083794939291906139fe565b60405180910390f35b61085a600480360381019061085591906139be565b61199b565b604051610867919061353e565b60405180910390f35b610878611a1d565b60405161088591906135e9565b60405180910390f35b610896611aaf565b6040516108a3919061353e565b60405180910390f35b6108b4611ab5565b6040516108c1919061353e565b60405180910390f35b6108e460048036038101906108df91906136d6565b611abb565b6040516108f19190613731565b60405180910390f35b610914600480360381019061090f919061364b565b611ade565b6040516109219190613ac5565b60405180910390f35b610944600480360381019061093f919061364b565b611b90565b604051610951919061353e565b60405180910390f35b610974600480360381019061096f9190613ae0565b611ba4565b604051610981919061353e565b60405180910390f35b6109a4600480360381019061099f9190613ae0565b611c33565b6040516109b1919061353e565b60405180910390f35b6109d460048036038101906109cf9190613800565b611cc2565b6040516109e1919061353e565b60405180910390f35b610a0460048036038101906109ff919061364b565b611cec565b604051610a11919061353e565b60405180910390f35b610a346004803603810190610a2f9190613800565b611d00565b604051610a41919061353e565b60405180910390f35b610a646004803603810190610a5f9190613800565b611d1c565b005b610a6e611e31565b604051610a7c929190613b33565b60405180910390f35b610a9f6004803603810190610a9a919061364b565b611e42565b005b610aa9611e54565b604051610ab6919061353e565b60405180910390f35b610ac7611e5a565b604051610ad4919061353e565b60405180910390f35b610af76004803603810190610af29190613800565b611e60565b604051610b04919061353e565b60405180910390f35b610b276004803603810190610b229190613b5c565b611e72565b604051610b34919061353e565b60405180910390f35b610b45611ef9565b604051610b52919061353e565b60405180910390f35b610b63611eff565b604051610b70919061353e565b60405180910390f35b610b936004803603810190610b8e919061364b565b611f07565b604051610ba0919061353e565b60405180910390f35b610bc36004803603810190610bbe919061364b565b611f1b565b005b610bdf6004803603810190610bda9190613800565b611faf565b005b610be9612035565b604051610bf6919061353e565b60405180910390f35b610c196004803603810190610c14919061364b565b61203b565b005b600080600080600a54600b54601154601254935093509350935090919293565b6000610c45610f61565b73ffffffffffffffffffffffffffffffffffffffff166370a08231306040518263ffffffff1660e01b8152600401610c7d91906137e5565b602060405180830381865afa158015610c9a573d6000803e3d6000fd5b505050506040513d601f19601f82011682018060405250810190610cbe9190613bb1565b905090565b606060038054610cd290613c0d565b80601f0160208091040260200160405190810160405280929190818152602001828054610cfe90613c0d565b8015610d4b5780601f10610d2057610100808354040283529160200191610d4b565b820191906000526020600020905b815481529060010190602001808311610d2e57829003601f168201915b5050505050905090565b6000610d628260006120ca565b9050919050565b600080610d74612123565b9050610d8181858561212b565b600191505092915050565b6000610d9982600161213d565b9050919050565b600c60009054906101000a900473ffffffffffffffffffffffffffffffffffffffff1673ffffffffffffffffffffffffffffffffffffffff163373ffffffffffffffffffffffffffffffffffffffff1614610e27576040517fc0fc8a8a00000000000000000000000000000000000000000000000000000000815260040160405180910390fd5b60008103610e61576040517f24eadd5d00000000000000000000000000000000000000000000000000000000815260040160405180910390fd5b6000600e54118015610e745750600e5481115b15610e9057610e8f600e5482610e8a9190613c6d565b612196565b5b80600e8190555042600f819055507f1569f913abe6cb538b4f89a7ca4c16840115c00eb8dfdc41528da7eebc0031be814233604051610ed193929190613ca1565b60405180910390a150565b610ee4612349565b8060168190555050565b6000600254905090565b600080610f03612123565b9050610f108582856123d0565b610f1b858585612465565b60019150509392505050565b6000610f31612559565b7f0000000000000000000000000000000000000000000000000000000000000000610f5c9190613cd8565b905090565b60007f0000000000000000000000000000000000000000000000000000000000000000905090565b60095481565b600e5481565b610f9d612349565b6000600760006101000a81548160ff0219169083151502179055507f5db9ee0a495bf2e6ff9c91a7834c1ba4fdd244a5e8aa4e537bd38aeae4b073aa33604051610fe791906137e5565b60405180910390a1565b60007fffffffffffffffffffffffffffffffffffffffffffffffffffffffffffffffff9050919050565b60085481565b60115481565b600c60009054906101000a900473ffffffffffffffffffffffffffffffffffffffff1681565b600061105a8260006120ca565b9050919050565b600c60009054906101000a900473ffffffffffffffffffffffffffffffffffffffff1673ffffffffffffffffffffffffffffffffffffffff163373ffffffffffffffffffffffffffffffffffffffff16146110e8576040517fc0fc8a8a00000000000000000000000000000000000000000000000000000000815260040160405180910390fd5b600082511161112c576040517f08c379a000000000000000000000000000000000000000000000000000000000815260040161112390613d59565b60405180910390fd5b6000811161116f576040517f08c379a000000000000000000000000000000000000000000000000000000000815260040161116690613deb565b60405180910390fd5b60008251148061117f5750600081145b156111bf576040517f08c379a00000000000000000000000000000000000000000000000000000000081526004016111b690613e57565b60405180910390fd5b816040516111cd9190613eb3565b60405180910390207f37e59a0d0b8a6893eac000c6b97511fe786c34b114bb6551f7f026a79dc6942a8242604051611206929190613b33565b60405180910390a25050565b61121a612349565b611222610f61565b73ffffffffffffffffffffffffffffffffffffffff1663a9059cbb611245611902565b836040518363ffffffff1660e01b8152600401611263929190613eca565b6020604051808303816000875af1158015611282573d6000803e3d6000fd5b505050506040513d601f19601f820116820180604052508101906112a69190613f1f565b5050565b60006002600654036112f1576040517f08c379a00000000000000000000000000000000000000000000000000000000081526004016112e890613f98565b60405180910390fd5b6002600681905550600760009054906101000a900460ff1615611349576040517f08c379a000000000000000000000000000000000000000000000000000000000815260040161134090614004565b60405180910390fd5b600854831015611385576040517f96ec8e5400000000000000000000000000000000000000000000000000000000815260040160405180910390fd5b60095483611391610c3b565b61139b9190614024565b11156113d3576040517f4f8d0ed200000000000000000000000000000000000000000000000000000000815260040160405180910390fd5b6113db61255e565b6113e58383612761565b9050600160068190555092915050565b6113fd612349565b6107d0811115611439576040517f58d620b300000000000000000000000000000000000000000000000000000000815260040160405180910390fd5b6000600a54905081600a819055507f44e5243903d4f21681121bff9dd91691edc7fa0b9d87cc40d6d65f1755a9b1b38183604051611478929190613b33565b60405180910390a15050565b60008060008373ffffffffffffffffffffffffffffffffffffffff1673ffffffffffffffffffffffffffffffffffffffff168152602001908152602001600020549050919050565b600c60009054906101000a900473ffffffffffffffffffffffffffffffffffffffff1673ffffffffffffffffffffffffffffffffffffffff163373ffffffffffffffffffffffffffffffffffffffff1614611553576040517fc0fc8a8a00000000000000000000000000000000000000000000000000000000815260040160405180910390fd5b61155b61255e565b565b611565612349565b61156f60006127e3565b565b600d60009054906101000a900473ffffffffffffffffffffffffffffffffffffffff1681565b6002600654036115dc576040517f08c379a00000000000000000000000000000000000000000000000000000000081526004016115d390613f98565b60405180910390fd5b600260068190555060006013600083815260200190815260200160002090503373ffffffffffffffffffffffffffffffffffffffff168160000160009054906101000a900473ffffffffffffffffffffffffffffffffffffffff1673ffffffffffffffffffffffffffffffffffffffff1614611684576040517fc0fc8a8a00000000000000000000000000000000000000000000000000000000815260040160405180910390fd5b8060030160009054906101000a900460ff16156116cd576040517f84b092a200000000000000000000000000000000000000000000000000000000815260040160405180910390fd5b60155481600201546116df9190614024565b421015611718576040517f0f2ca6e700000000000000000000000000000000000000000000000000000000815260040160405180910390fd5b60018160030160006101000a81548160ff0219169083151502179055506000611744826001015461104d565b90506117788260000160009054906101000a900473ffffffffffffffffffffffffffffffffffffffff1683600101546128a9565b611780610f61565b73ffffffffffffffffffffffffffffffffffffffff1663a9059cbb8360000160009054906101000a900473ffffffffffffffffffffffffffffffffffffffff16836040518363ffffffff1660e01b81526004016117de929190613eca565b6020604051808303816000875af11580156117fd573d6000803e3d6000fd5b505050506040513d601f19601f820116820180604052508101906118219190613f1f565b507f3e4ec7607342525bba1e97fff1e643818b1ac98b3da56568e40fbb82cf8aa846838360000160009054906101000a900473ffffffffffffffffffffffffffffffffffffffff1684600101548460405161187f9493929190614058565b60405180910390a15050600160068190555050565b61189c612349565b6001600760006101000a81548160ff0219169083151502179055507f62e78cea01bee320cd4e420270b5ea74000d11b0c9f74754ebdbfc544b05a258336040516118e691906137e5565b60405180910390a1565b60105481565b600f5481565b600a5481565b6000600560009054906101000a900473ffffffffffffffffffffffffffffffffffffffff16905090565b611934612349565b8060088190555050565b60136020528060005260406000206000915090508060000160009054906101000a900473ffffffffffffffffffffffffffffffffffffffff16908060010154908060020154908060030160009054906101000a900460ff16905084565b6000806119a783611cc2565b9050808411156119f2578284826040517f284ff6670000000000000000000000000000000000000000000000000000000081526004016119e99392919061409d565b60405180910390fd5b60006119fd85611b90565b9050611a12611a0a612123565b85838861292b565b809250505092915050565b606060048054611a2c90613c0d565b80601f0160208091040260200160405190810160405280929190818152602001828054611a5890613c0d565b8015611aa55780601f10611a7a57610100808354040283529160200191611aa5565b820191906000526020600020905b815481529060010190602001808311611a8857829003601f168201915b5050505050905090565b600b5481565b60155481565b600080611ac6612123565b9050611ad3818585612465565b600191505092915050565b611ae66134a0565b601360008381526020019081526020016000206040518060800160405290816000820160009054906101000a900473ffffffffffffffffffffffffffffffffffffffff1673ffffffffffffffffffffffffffffffffffffffff1673ffffffffffffffffffffffffffffffffffffffff16815260200160018201548152602001600282015481526020016003820160009054906101000a900460ff1615151515815250509050919050565b6000611b9d8260016120ca565b9050919050565b6000600260065403611beb576040517f08c379a0000000000000000000000000000000000000000000000000000000008152600401611be290613f98565b60405180910390fd5b60026006819055506016548410611c1657611c0584610d8c565b9050611c1182826129b5565b611c24565b611c21848484612adb565b90505b60016006819055509392505050565b6000600260065403611c7a576040517f08c379a0000000000000000000000000000000000000000000000000000000008152600401611c7190613f98565b60405180910390fd5b6002600681905550611c8b8461104d565b90506016548110611ca557611ca082856129b5565b611cb3565b611cb0848484612b5f565b90505b60016006819055509392505050565b60007fffffffffffffffffffffffffffffffffffffffffffffffffffffffffffffffff9050919050565b6000611cf982600061213d565b9050919050565b6000611d15611d0e83611484565b60006120ca565b9050919050565b611d24612349565b80600073ffffffffffffffffffffffffffffffffffffffff168173ffffffffffffffffffffffffffffffffffffffff1603611d8b576040517fd92e233d00000000000000000000000000000000000000000000000000000000815260040160405180910390fd5b6000600c60009054906101000a900473ffffffffffffffffffffffffffffffffffffffff16905082600c60006101000a81548173ffffffffffffffffffffffffffffffffffffffff021916908373ffffffffffffffffffffffffffffffffffffffff1602179055507f605c2dbf762e5f7d60a546d42e7205dcb1b011ebc62a61736a57c9089d3a43508184604051611e249291906140d4565b60405180910390a1505050565b600080600e54600f54915091509091565b611e4a612349565b8060158190555050565b61271081565b60145481565b6000611e6b82611484565b9050919050565b6000600160008473ffffffffffffffffffffffffffffffffffffffff1673ffffffffffffffffffffffffffffffffffffffff16815260200190815260200160002060008373ffffffffffffffffffffffffffffffffffffffff1673ffffffffffffffffffffffffffffffffffffffff16815260200190815260200160002054905092915050565b60125481565b6301e1338081565b6000611f1482600061213d565b9050919050565b611f23612349565b611f2b610c3b565b811015611f64576040517f43420d1700000000000000000000000000000000000000000000000000000000815260040160405180910390fd5b60006009549050816009819055507f4d2401457be9e6122a73ae61656c5683178c9f48c9d3eef2de0542d09d35be778183604051611fa3929190613b33565b60405180910390a15050565b611fb7612349565b600073ffffffffffffffffffffffffffffffffffffffff168173ffffffffffffffffffffffffffffffffffffffff16036120295760006040517f1e4fbdf700000000000000000000000000000000000000000000000000000000815260040161202091906137e5565b60405180910390fd5b612032816127e3565b50565b60165481565b612043612349565b6101f481111561207f576040517f58d620b300000000000000000000000000000000000000000000000000000000815260040160405180910390fd5b6000600b54905081600b819055507ffac39c9265fbab8fd6b4293b3f584cb3b1c0c39fb315acbcd4d1bef067c340cd81836040516120be929190613b33565b60405180910390a15050565b600061211b60016120d9610c3b565b6120e39190614024565b6120eb612559565b600a6120f79190614230565b6120ff610eee565b6121099190614024565b8486612be3909392919063ffffffff16565b905092915050565b600033905090565b6121388383836001612c32565b505050565b600061218e61214a612559565b600a6121569190614230565b61215e610eee565b6121689190614024565b6001612172610c3b565b61217c9190614024565b8486612be3909392919063ffffffff16565b905092915050565b6000612710600a54836121a9919061427b565b6121b391906142ec565b90506000811180156122455750806121c9610f61565b73ffffffffffffffffffffffffffffffffffffffff166370a08231306040518263ffffffff1660e01b815260040161220191906137e5565b602060405180830381865afa15801561221e573d6000803e3d6000fd5b505050506040513d601f19601f820116820180604052508101906122429190613bb1565b10155b1561234557612252610f61565b73ffffffffffffffffffffffffffffffffffffffff1663a9059cbb600d60009054906101000a900473ffffffffffffffffffffffffffffffffffffffff16836040518363ffffffff1660e01b81526004016122ae929190613eca565b6020604051808303816000875af11580156122cd573d6000803e3d6000fd5b505050506040513d601f19601f820116820180604052508101906122f19190613f1f565b5080601160008282546123049190614024565b925050819055507f27c911040371674ee220be22d1cf1a554a2f34e5bbb946f7b11d7d3a7c5b734c814260405161233c929190613b33565b60405180910390a15b5050565b612351612123565b73ffffffffffffffffffffffffffffffffffffffff1661236f611902565b73ffffffffffffffffffffffffffffffffffffffff16146123ce57612392612123565b6040517f118cdaa70000000000000000000000000000000000000000000000000000000081526004016123c591906137e5565b60405180910390fd5b565b60006123dc8484611e72565b90507fffffffffffffffffffffffffffffffffffffffffffffffffffffffffffffffff81101561245f578181101561244f578281836040517ffb8f41b20000000000000000000000000000000000000000000000000000000081526004016124469392919061409d565b60405180910390fd5b61245e84848484036000612c32565b5b50505050565b600073ffffffffffffffffffffffffffffffffffffffff168373ffffffffffffffffffffffffffffffffffffffff16036124d75760006040517f96c6fd1e0000000000000000000000000000000000000000000000000000000081526004016124ce91906137e5565b60405180910390fd5b600073ffffffffffffffffffffffffffffffffffffffff168273ffffffffffffffffffffffffffffffffffffffff16036125495760006040517fec442f0500000000000000000000000000000000000000000000000000000000815260040161254091906137e5565b60405180910390fd5b612554838383612e09565b505050565b600090565b60006010544261256e9190613c6d565b9050600081111561275e576000612583610c3b565b90506000612710600b5483612598919061427b565b6125a291906142ec565b905060006301e1338084836125b7919061427b565b6125c191906142ec565b90506000811180156126535750806125d7610f61565b73ffffffffffffffffffffffffffffffffffffffff166370a08231306040518263ffffffff1660e01b815260040161260f91906137e5565b602060405180830381865afa15801561262c573d6000803e3d6000fd5b505050506040513d601f19601f820116820180604052508101906126509190613bb1565b10155b1561275a57612660610f61565b73ffffffffffffffffffffffffffffffffffffffff1663a9059cbb600d60009054906101000a900473ffffffffffffffffffffffffffffffffffffffff16836040518363ffffffff1660e01b81526004016126bc929190613eca565b6020604051808303816000875af11580156126db573d6000803e3d6000fd5b505050506040513d601f19601f820116820180604052508101906126ff9190613f1f565b5080601260008282546127129190614024565b92505081905550426010819055507f6f4a589972e181c1010960e6cb88e05776a4f3a28373e49c69ffdf8cc30f1a318142604051612751929190613b33565b60405180910390a15b5050505b50565b60008061276d83610ff1565b9050808411156127b8578284826040517f79012fb20000000000000000000000000000000000000000000000000000000081526004016127af9392919061409d565b60405180910390fd5b60006127c385611f07565b90506127d86127d0612123565b85878461292b565b809250505092915050565b6000600560009054906101000a900473ffffffffffffffffffffffffffffffffffffffff16905081600560006101000a81548173ffffffffffffffffffffffffffffffffffffffff021916908373ffffffffffffffffffffffffffffffffffffffff1602179055508173ffffffffffffffffffffffffffffffffffffffff168173ffffffffffffffffffffffffffffffffffffffff167f8be0079c531659141344cd1fd0a4f28419497f9722a3daafe3b4186f6b6457e060405160405180910390a35050565b600073ffffffffffffffffffffffffffffffffffffffff168273ffffffffffffffffffffffffffffffffffffffff160361291b5760006040517f96c6fd1e00000000000000000000000000000000000000000000000000000000815260040161291291906137e5565b60405180910390fd5b61292782600083612e09565b5050565b61293e612936610f61565b85308561302e565b61294883826130b0565b8273ffffffffffffffffffffffffffffffffffffffff168473ffffffffffffffffffffffffffffffffffffffff167fdcbc1c05240f31ff3ad067ef1ee35ce4997762752e3a095284754544f4c709d784846040516129a7929190613b33565b60405180910390a350505050565b601460008154809291906129c89061431d565b919050555060405180608001604052808373ffffffffffffffffffffffffffffffffffffffff1681526020018281526020014281526020016000151581525060136000601454815260200190815260200160002060008201518160000160006101000a81548173ffffffffffffffffffffffffffffffffffffffff021916908373ffffffffffffffffffffffffffffffffffffffff160217905550602082015181600101556040820151816002015560608201518160030160006101000a81548160ff0219169083151502179055509050507f6620e1bb18901e7cc06eb4c152cbf61f7f069350e9cf118060d463c4e5430ba06014548383604051612acf93929190614365565b60405180910390a15050565b600080612ae783611d00565b905080851115612b32578285826040517ffe9cceec000000000000000000000000000000000000000000000000000000008152600401612b299392919061409d565b60405180910390fd5b6000612b3d86610d8c565b9050612b53612b4a612123565b86868985613132565b80925050509392505050565b600080612b6b83611e60565b905080851115612bb6578285826040517fb94abeec000000000000000000000000000000000000000000000000000000008152600401612bad9392919061409d565b60405180910390fd5b6000612bc18661104d565b9050612bd7612bce612123565b8686848a613132565b80925050509392505050565b6000612c13612bf183613212565b8015612c0e575060008480612c0957612c086142bd565b5b868809115b613240565b612c1e86868661324c565b612c289190614024565b9050949350505050565b600073ffffffffffffffffffffffffffffffffffffffff168473ffffffffffffffffffffffffffffffffffffffff1603612ca45760006040517fe602df05000000000000000000000000000000000000000000000000000000008152600401612c9b91906137e5565b60405180910390fd5b600073ffffffffffffffffffffffffffffffffffffffff168373ffffffffffffffffffffffffffffffffffffffff1603612d165760006040517f94280d62000000000000000000000000000000000000000000000000000000008152600401612d0d91906137e5565b60405180910390fd5b81600160008673ffffffffffffffffffffffffffffffffffffffff1673ffffffffffffffffffffffffffffffffffffffff16815260200190815260200160002060008573ffffffffffffffffffffffffffffffffffffffff1673ffffffffffffffffffffffffffffffffffffffff168152602001908152602001600020819055508015612e03578273ffffffffffffffffffffffffffffffffffffffff168473ffffffffffffffffffffffffffffffffffffffff167f8c5be1e5ebec7d5bd14f71427d1e84f3dd0314c0f7b2291e5b200ac8c7c3b92584604051612dfa919061353e565b60405180910390a35b50505050565b600073ffffffffffffffffffffffffffffffffffffffff168373ffffffffffffffffffffffffffffffffffffffff1603612e5b578060026000828254612e4f9190614024565b92505081905550612f2e565b60008060008573ffffffffffffffffffffffffffffffffffffffff1673ffffffffffffffffffffffffffffffffffffffff16815260200190815260200160002054905081811015612ee7578381836040517fe450d38c000000000000000000000000000000000000000000000000000000008152600401612ede9392919061409d565b60405180910390fd5b8181036000808673ffffffffffffffffffffffffffffffffffffffff1673ffffffffffffffffffffffffffffffffffffffff16815260200190815260200160002081905550505b600073ffffffffffffffffffffffffffffffffffffffff168273ffffffffffffffffffffffffffffffffffffffff1603612f775780600260008282540392505081905550612fc4565b806000808473ffffffffffffffffffffffffffffffffffffffff1673ffffffffffffffffffffffffffffffffffffffff168152602001908152602001600020600082825401925050819055505b8173ffffffffffffffffffffffffffffffffffffffff168373ffffffffffffffffffffffffffffffffffffffff167fddf252ad1be2c89b69c2b068fc378daa952ba7f163c4a11628f55a4df523b3ef83604051613021919061353e565b60405180910390a3505050565b6130aa848573ffffffffffffffffffffffffffffffffffffffff166323b872dd8686866040516024016130639392919061439c565b604051602081830303815290604052915060e01b6020820180517bffffffffffffffffffffffffffffffffffffffffffffffffffffffff8381831617835250505050613334565b50505050565b600073ffffffffffffffffffffffffffffffffffffffff168273ffffffffffffffffffffffffffffffffffffffff16036131225760006040517fec442f0500000000000000000000000000000000000000000000000000000000815260040161311991906137e5565b60405180910390fd5b61312e60008383612e09565b5050565b8273ffffffffffffffffffffffffffffffffffffffff168573ffffffffffffffffffffffffffffffffffffffff1614613171576131708386836123d0565b5b61317b83826128a9565b61318d613186610f61565b85846133d6565b8273ffffffffffffffffffffffffffffffffffffffff168473ffffffffffffffffffffffffffffffffffffffff168673ffffffffffffffffffffffffffffffffffffffff167ffbde797d201c681b91056529119e0b02407c7bb96a4a2c75c01fc9667232c8db8585604051613203929190613b33565b60405180910390a45050505050565b60006001600283600381111561322b5761322a6143d3565b5b6132359190614402565b60ff16149050919050565b60008115159050919050565b600080600061325b8686613455565b915091506000820361328157838181613277576132766142bd565b5b049250505061332d565b8184116132a1576132a061329b6000861460126011613474565b61348e565b5b600084868809905081811183039250808203915060008560000386169050808604955080830492506001818260000304019050808402831792506000600287600302189050808702600203810290508087026002038102905080870260020381029050808702600203810290508087026002038102905080870260020381029050808402955050505050505b9392505050565b600080602060008451602086016000885af180613357576040513d6000823e3d81fd5b3d92506000519150506000821461337257600181141561338e565b60008473ffffffffffffffffffffffffffffffffffffffff163b145b156133d057836040517f5274afe70000000000000000000000000000000000000000000000000000000081526004016133c791906137e5565b60405180910390fd5b50505050565b613450838473ffffffffffffffffffffffffffffffffffffffff1663a9059cbb8585604051602401613409929190613eca565b604051602081830303815290604052915060e01b6020820180517bffffffffffffffffffffffffffffffffffffffffffffffffffffffff8381831617835250505050613334565b505050565b6000806000198385098385029150818110828203039250509250929050565b600061347f84613240565b82841802821890509392505050565b634e487b71600052806020526024601cfd5b6040518060800160405280600073ffffffffffffffffffffffffffffffffffffffff16815260200160008152602001600081526020016000151581525090565b6000819050919050565b6134f3816134e0565b82525050565b600060808201905061350e60008301876134ea565b61351b60208301866134ea565b61352860408301856134ea565b61353560608301846134ea565b95945050505050565b600060208201905061355360008301846134ea565b92915050565b600081519050919050565b600082825260208201905092915050565b60005b83811015613593578082015181840152602081019050613578565b60008484015250505050565b6000601f19601f8301169050919050565b60006135bb82613559565b6135c58185613564565b93506135d5818560208601613575565b6135de8161359f565b840191505092915050565b6000602082019050818103600083015261360381846135b0565b905092915050565b6000604051905090565b600080fd5b600080fd5b613628816134e0565b811461363357600080fd5b50565b6000813590506136458161361f565b92915050565b60006020828403121561366157613660613615565b5b600061366f84828501613636565b91505092915050565b600073ffffffffffffffffffffffffffffffffffffffff82169050919050565b60006136a382613678565b9050919050565b6136b381613698565b81146136be57600080fd5b50565b6000813590506136d0816136aa565b92915050565b600080604083850312156136ed576136ec613615565b5b60006136fb858286016136c1565b925050602061370c85828601613636565b9150509250929050565b60008115159050919050565b61372b81613716565b82525050565b60006020820190506137466000830184613722565b92915050565b60008060006060848603121561376557613764613615565b5b6000613773868287016136c1565b9350506020613784868287016136c1565b925050604061379586828701613636565b9150509250925092565b600060ff82169050919050565b6137b58161379f565b82525050565b60006020820190506137d060008301846137ac565b92915050565b6137df81613698565b82525050565b60006020820190506137fa60008301846137d6565b92915050565b60006020828403121561381657613815613615565b5b6000613824848285016136c1565b91505092915050565b600080fd5b600080fd5b7f4e487b7100000000000000000000000000000000000000000000000000000000600052604160045260246000fd5b61386f8261359f565b810181811067ffffffffffffffff8211171561388e5761388d613837565b5b80604052505050565b60006138a161360b565b90506138ad8282613866565b919050565b600067ffffffffffffffff8211156138cd576138cc613837565b5b6138d68261359f565b9050602081019050919050565b82818337600083830152505050565b6000613905613900846138b2565b613897565b90508281526020810184848401111561392157613920613832565b5b61392c8482856138e3565b509392505050565b600082601f8301126139495761394861382d565b5b81356139598482602086016138f2565b91505092915050565b6000806040838503121561397957613978613615565b5b600083013567ffffffffffffffff8111156139975761399661361a565b5b6139a385828601613934565b92505060206139b485828601613636565b9150509250929050565b600080604083850312156139d5576139d4613615565b5b60006139e385828601613636565b92505060206139f4858286016136c1565b9150509250929050565b6000608082019050613a1360008301876137d6565b613a2060208301866134ea565b613a2d60408301856134ea565b613a3a6060830184613722565b95945050505050565b613a4c81613698565b82525050565b613a5b816134e0565b82525050565b613a6a81613716565b82525050565b608082016000820151613a866000850182613a43565b506020820151613a996020850182613a52565b506040820151613aac6040850182613a52565b506060820151613abf6060850182613a61565b50505050565b6000608082019050613ada6000830184613a70565b92915050565b600080600060608486031215613af957613af8613615565b5b6000613b0786828701613636565b9350506020613b18868287016136c1565b9250506040613b29868287016136c1565b9150509250925092565b6000604082019050613b4860008301856134ea565b613b5560208301846134ea565b9392505050565b60008060408385031215613b7357613b72613615565b5b6000613b81858286016136c1565b9250506020613b92858286016136c1565b9150509250929050565b600081519050613bab8161361f565b92915050565b600060208284031215613bc757613bc6613615565b5b6000613bd584828501613b9c565b91505092915050565b7f4e487b7100000000000000000000000000000000000000000000000000000000600052602260045260246000fd5b60006002820490506001821680613c2557607f821691505b602082108103613c3857613c37613bde565b5b50919050565b7f4e487b7100000000000000000000000000000000000000000000000000000000600052601160045260246000fd5b6000613c78826134e0565b9150613c83836134e0565b9250828203905081811115613c9b57613c9a613c3e565b5b92915050565b6000606082019050613cb660008301866134ea565b613cc360208301856134ea565b613cd060408301846137d6565b949350505050565b6000613ce38261379f565b9150613cee8361379f565b9250828201905060ff811115613d0757613d06613c3e565b5b92915050565b7f44414f2049442063616e6e6f7420626520656d70747900000000000000000000600082015250565b6000613d43601683613564565b9150613d4e82613d0d565b602082019050919050565b60006020820190508181036000830152613d7281613d36565b9050919050565b7f46656520616d6f756e74206d7573742062652067726561746572207468616e2060008201527f7a65726f00000000000000000000000000000000000000000000000000000000602082015250565b6000613dd5602483613564565b9150613de082613d79565b604082019050919050565b60006020820190508181036000830152613e0481613dc8565b9050919050565b7f496e76616c69642044414f204944206f722066656520616d6f756e7400000000600082015250565b6000613e41601c83613564565b9150613e4c82613e0b565b602082019050919050565b60006020820190508181036000830152613e7081613e34565b9050919050565b600081905092915050565b6000613e8d82613559565b613e978185613e77565b9350613ea7818560208601613575565b80840191505092915050565b6000613ebf8284613e82565b915081905092915050565b6000604082019050613edf60008301856137d6565b613eec60208301846134ea565b9392505050565b613efc81613716565b8114613f0757600080fd5b50565b600081519050613f1981613ef3565b92915050565b600060208284031215613f3557613f34613615565b5b6000613f4384828501613f0a565b91505092915050565b7f5265656e7472616e637947756172643a207265656e7472616e742063616c6c00600082015250565b6000613f82601f83613564565b9150613f8d82613f4c565b602082019050919050565b60006020820190508181036000830152613fb181613f75565b9050919050565b7f5061757361626c653a2070617573656400000000000000000000000000000000600082015250565b6000613fee601083613564565b9150613ff982613fb8565b602082019050919050565b6000602082019050818103600083015261401d81613fe1565b9050919050565b600061402f826134e0565b915061403a836134e0565b925082820190508082111561405257614051613c3e565b5b92915050565b600060808201905061406d60008301876134ea565b61407a60208301866137d6565b61408760408301856134ea565b61409460608301846134ea565b95945050505050565b60006060820190506140b260008301866137d6565b6140bf60208301856134ea565b6140cc60408301846134ea565b949350505050565b60006040820190506140e960008301856137d6565b6140f660208301846137d6565b9392505050565b60008160011c9050919050565b6000808291508390505b6001851115614154578086048111156141305761412f613c3e565b5b600185161561413f5780820291505b808102905061414d856140fd565b9450614114565b94509492505050565b60008261416d5760019050614229565b8161417b5760009050614229565b8160018114614191576002811461419b576141ca565b6001915050614229565b60ff8411156141ad576141ac613c3e565b5b8360020a9150848211156141c4576141c3613c3e565b5b50614229565b5060208310610133831016604e8410600b84101617156141ff5782820a9050838111156141fa576141f9613c3e565b5b614229565b61420c848484600161410a565b9250905081840481111561422357614222613c3e565b5b81810290505b9392505050565b600061423b826134e0565b91506142468361379f565b92506142737fffffffffffffffffffffffffffffffffffffffffffffffffffffffffffffffff848461415d565b905092915050565b6000614286826134e0565b9150614291836134e0565b925082820261429f816134e0565b915082820484148315176142b6576142b5613c3e565b5b5092915050565b7f4e487b7100000000000000000000000000000000000000000000000000000000600052601260045260246000fd5b60006142f7826134e0565b9150614302836134e0565b925082614312576143116142bd565b5b828204905092915050565b6000614328826134e0565b91507fffffffffffffffffffffffffffffffffffffffffffffffffffffffffffffffff820361435a57614359613c3e565b5b600182019050919050565b600060608201905061437a60008301866134ea565b61438760208301856137d6565b61439460408301846134ea565b949350505050565b60006060820190506143b160008301866137d6565b6143be60208301856137d6565b6143cb60408301846134ea565b949350505050565b7f4e487b7100000000000000000000000000000000000000000000000000000000600052602160045260246000fd5b600061440d8261379f565b91506144188361379f565b925082614428576144276142bd565b5b82820690509291505056fea2646970667358221220bd05bf74f18815fb077f798b2f14c933876cb265e2928683dca7b716f1bd4a1b64736f6c63430008140033",
  "linkReferences": {},
  "deployedLinkReferences": {}
}